{
  "abi": [
    {
      "inputs": [],
      "stateMutability": "nonpayable",
      "type": "constructor"
    },
    {
      "inputs": [
        {
          "internalType": "string",
          "name": "name",
          "type": "string"
        }
      ],
      "name": "addSubject",
      "outputs": [],
      "stateMutability": "nonpayable",
      "type": "function"
    },
    {
      "inputs": [
        {
          "internalType": "address",
          "name": "addr",
          "type": "address"
        }
      ],
      "name": "addVoter",
      "outputs": [],
      "stateMutability": "nonpayable",
      "type": "function"
    },
    {
      "inputs": [],
      "name": "getRemainingTime",
      "outputs": [
        {
          "internalType": "uint256",
          "name": "",
          "type": "uint256"
        }
      ],
      "stateMutability": "view",
      "type": "function"
    },
    {
      "inputs": [],
      "name": "getResults",
      "outputs": [
        {
          "components": [
            {
              "internalType": "string",
              "name": "name",
              "type": "string"
            },
            {
              "internalType": "int256",
              "name": "votes",
              "type": "int256"
            }
          ],
          "internalType": "struct IVoteD21.Subject[]",
          "name": "",
          "type": "tuple[]"
        }
      ],
      "stateMutability": "view",
      "type": "function"
    },
    {
      "inputs": [
        {
          "internalType": "address",
          "name": "addr",
          "type": "address"
        }
      ],
      "name": "getSubject",
      "outputs": [
        {
          "components": [
            {
              "internalType": "string",
              "name": "name",
              "type": "string"
            },
            {
              "internalType": "int256",
              "name": "votes",
              "type": "int256"
            }
          ],
          "internalType": "struct IVoteD21.Subject",
          "name": "",
          "type": "tuple"
        }
      ],
      "stateMutability": "view",
      "type": "function"
    },
    {
      "inputs": [],
      "name": "getSubjects",
      "outputs": [
        {
          "internalType": "address[]",
          "name": "",
          "type": "address[]"
        }
      ],
      "stateMutability": "view",
      "type": "function"
    },
    {
      "inputs": [],
      "name": "owner",
      "outputs": [
        {
          "internalType": "address",
          "name": "",
          "type": "address"
        }
      ],
      "stateMutability": "view",
      "type": "function"
    },
    {
      "inputs": [
        {
          "internalType": "address",
          "name": "addr",
          "type": "address"
        }
      ],
      "name": "voteNegative",
      "outputs": [],
      "stateMutability": "nonpayable",
      "type": "function"
    },
    {
      "inputs": [
        {
          "internalType": "address",
          "name": "addr",
          "type": "address"
        }
      ],
      "name": "votePositive",
      "outputs": [],
      "stateMutability": "nonpayable",
      "type": "function"
    }
  ],
  "bytecode": "60a060405234801561001057600080fd5b50336080526100224262093a8061002a565b600055610050565b6000821982111561004b57634e487b7160e01b600052601160045260246000fd5b500190565b60805161122e6100716000396000818160f60152610b7d015261122e6000f3fe608060405234801561001057600080fd5b50600436106100935760003560e01c80638da5cb5b116100665780638da5cb5b146100f15780639c4be14714610130578063e50b310b14610150578063efb98bcf14610165578063f4ab9adf1461017b57600080fd5b80630667867f146100985780632673d9c6146100ad578063365b890e146100c05780634717f97c146100d3575b600080fd5b6100ab6100a6366004610eb6565b61018e565b005b6100ab6100bb366004610f67565b6102ea565b6100ab6100ce366004610f67565b610585565b6100db610848565b6040516100e89190610ff7565b60405180910390f35b6101187f000000000000000000000000000000000000000000000000000000000000000081565b6040516001600160a01b0390911681526020016100e8565b61014361013e366004610f67565b6109e0565b6040516100e89190611059565b610158610ab9565b6040516100e8919061106c565b61016d610b1b565b6040519081526020016100e8565b6100ab610189366004610f67565b610b51565b42600054116101b85760405162461bcd60e51b81526004016101af906110b9565b60405180910390fd5b3360009081526003602052604090205460ff161561024c5760405162461bcd60e51b815260206004820152604560248201527f4f6e6520706572736f6e2063616e20637265617465206f6e65207375626a656360448201527f74206f6e6c792e20596f75206861766520616c726561647920637265617465646064820152641037b7329760d91b608482015260a4016101af565b604080518082018252828152600060208083018290523382526001815292902081518051929391926102819284920190610e07565b50602091820151600191820155600480548083019091557f8a35acfbc15ff81a39ae7d344fd709f28e8600b4aa8c65c6b64bfe7fe36bd19b0180546001600160a01b03191633908117909155600090815260039092526040909120805460ff1916909117905550565b426000541161030b5760405162461bcd60e51b81526004016101af906110b9565b3360009081526002602052604090205460ff1661035e5760405162461bcd60e51b81526020600482015260116024820152702cb7ba9031b0b7103737ba103b37ba329760791b60448201526064016101af565b6001600160a01b038116600090815260036020526040902054819060ff166103c25760405162461bcd60e51b815260206004820152601760248201527629bab13532b1ba103237b2b9903737ba1032bc34b9ba1760491b60448201526064016101af565b33600090815260026020819052604090912060018101549091600160a01b90910460ff16106104465760405162461bcd60e51b815260206004820152602a60248201527f596f75206861766520616c7265616479206469766520706f736974697665207660448201526937ba32903a3bb4b1b29760b11b60648201526084016101af565b80546001600160a01b038481166101009092041614156104b95760405162461bcd60e51b815260206004820152602860248201527f596f75206861766520616c726561647920766f74656420666f7220746869732060448201526739bab13532b1ba1760c11b60648201526084016101af565b6001810180546014906104d590600160a01b900460ff16611106565b91906101000a81548160ff021916908360ff16021790555060016000846001600160a01b03166001600160a01b031681526020019081526020016000206001016000815461052290611126565b90915550600181810154600160a01b900460ff1614156105615780546001600160a01b03841661010002610100600160a81b0319909116178155505050565b6001810180546001600160a01b0385166001600160a01b0319909116179055505050565b42600054116105a65760405162461bcd60e51b81526004016101af906110b9565b3360009081526002602052604090205460ff166105f95760405162461bcd60e51b81526020600482015260116024820152702cb7ba9031b0b7103737ba103b37ba329760791b60448201526064016101af565b6001600160a01b038116600090815260036020526040902054819060ff1661065d5760405162461bcd60e51b815260206004820152601760248201527629bab13532b1ba103237b2b9903737ba1032bc34b9ba1760491b60448201526064016101af565b336000908152600260205260409020600180820154600160a01b900460ff16116106e55760405162461bcd60e51b815260206004820152603360248201527f596f75206d75737420766f746520706f7369746976652074776963652c2062656044820152723337b932903b37ba32903732b3b0ba34bb329760691b60648201526084016101af565b60018101546003600160a01b90910460ff16106107445760405162461bcd60e51b815260206004820181905260248201527f596f75206861766520616c726561647920766f746564206e656761746976652e60448201526064016101af565b80546001600160a01b038481166101009092041614801590610776575060018101546001600160a01b03848116911614155b6107d65760405162461bcd60e51b815260206004820152602b60248201527f596f7520616c726561647920766f74656420706f73697469766520666f72207460448201526a1a1a5cc81cdd589a9958dd60aa1b60648201526084016101af565b6001810180546014906107f290600160a01b900460ff16611106565b91906101000a81548160ff021916908360ff16021790555060016000846001600160a01b03166001600160a01b031681526020019081526020016000206001016000815461083f90611146565b90915550505050565b60045460609060009067ffffffffffffffff81111561086957610869610ea0565b6040519080825280602002602001820160405280156108af57816020015b6040805180820190915260608152600060208201528152602001906001900390816108875790505b50905060005b6004548110156109d05760016000600483815481106108d6576108d6611164565b60009182526020808320909101546001600160a01b03168352820192909252604090810190912081518083019092528054829082906109149061117a565b80601f01602080910402602001604051908101604052809291908181526020018280546109409061117a565b801561098d5780601f106109625761010080835404028352916020019161098d565b820191906000526020600020905b81548152906001019060200180831161097057829003601f168201915b505050505081526020016001820154815250508282815181106109b2576109b2611164565b602002602001018190525080806109c8906111b5565b9150506108b5565b506109da81610cfb565b91505090565b6040805180820190915260608152600060208201526001600160a01b038216600090815260016020526040908190208151808301909252805482908290610a269061117a565b80601f0160208091040260200160405190810160405280929190818152602001828054610a529061117a565b8015610a9f5780601f10610a7457610100808354040283529160200191610a9f565b820191906000526020600020905b815481529060010190602001808311610a8257829003601f168201915b505050505081526020016001820154815250509050919050565b60606004805480602002602001604051908101604052809291908181526020018280548015610b1157602002820191906000526020600020905b81546001600160a01b03168152600190910190602001808311610af3575b5050505050905090565b60004260005411610b3e5760405162461bcd60e51b81526004016101af906110b9565b42600054610b4c91906111c9565b905090565b4260005411610b725760405162461bcd60e51b81526004016101af906110b9565b336001600160a01b037f00000000000000000000000000000000000000000000000000000000000000001614610bf65760405162461bcd60e51b815260206004820152602360248201527f436f6e7472616374206f776e6572206f6e6c792063616e2061646420766f746560448201526239399760e91b60648201526084016101af565b6001600160a01b03811660009081526002602052604090205460ff1615610c715760405162461bcd60e51b815260206004820152602960248201527f5468697320706572736f6e2077617320616c72656164792061646465642061736044820152681030903b37ba32b91760b91b60648201526084016101af565b60408051608081018252600180825260006020808401828152848601838152606086018481526001600160a01b039889168552600290935295909220935184549251871661010002610100600160a81b0319911515919091166001600160a81b0319938416171784559351929091018054935160ff16600160a01b02939091169190931617179055565b805160609060005b81811015610dff576000610d188260016111e0565b90505b82811015610dec57848181518110610d3557610d35611164565b602002602001015160200151858381518110610d5357610d53611164565b6020026020010151602001511215610dda576000858381518110610d7957610d79611164565b60200260200101519050858281518110610d9557610d95611164565b6020026020010151868481518110610daf57610daf611164565b602002602001018190525080868381518110610dcd57610dcd611164565b6020026020010181905250505b80610de4816111b5565b915050610d1b565b5080610df7816111b5565b915050610d03565b509192915050565b828054610e139061117a565b90600052602060002090601f016020900481019282610e355760008555610e7b565b82601f10610e4e57805160ff1916838001178555610e7b565b82800160010185558215610e7b579182015b82811115610e7b578251825591602001919060010190610e60565b50610e87929150610e8b565b5090565b5b80821115610e875760008155600101610e8c565b634e487b7160e01b600052604160045260246000fd5b600060208284031215610ec857600080fd5b813567ffffffffffffffff80821115610ee057600080fd5b818401915084601f830112610ef457600080fd5b813581811115610f0657610f06610ea0565b604051601f8201601f19908116603f01168101908382118183101715610f2e57610f2e610ea0565b81604052828152876020848701011115610f4757600080fd5b826020860160208301376000928101602001929092525095945050505050565b600060208284031215610f7957600080fd5b81356001600160a01b0381168114610f9057600080fd5b9392505050565b6000815160408452805180604086015260005b81811015610fc75760208184018101516060888401015201610faa565b81811115610fd9576000606083880101525b50602093840151938501939093525050601f01601f19160160600190565b6000602080830181845280855180835260408601915060408160051b870101925083870160005b8281101561104c57603f1988860301845261103a858351610f97565b9450928501929085019060010161101e565b5092979650505050505050565b602081526000610f906020830184610f97565b6020808252825182820181905260009190848201906040850190845b818110156110ad5783516001600160a01b031683529284019291840191600101611088565b50909695505050505050565b6020808252601b908201527f54686520656c656374696f6e73206973206e6f7720656e6465642e0000000000604082015260600190565b634e487b7160e01b600052601160045260246000fd5b600060ff821660ff81141561111d5761111d6110f0565b60010192915050565b60006001600160ff1b0382141561113f5761113f6110f0565b5060010190565b6000600160ff1b82141561115c5761115c6110f0565b506000190190565b634e487b7160e01b600052603260045260246000fd5b600181811c9082168061118e57607f821691505b602082108114156111af57634e487b7160e01b600052602260045260246000fd5b50919050565b600060001982141561113f5761113f6110f0565b6000828210156111db576111db6110f0565b500390565b600082198211156111f3576111f36110f0565b50019056fea26469706673582212208de0726a8ca769c1dc5937fe0ab108f77e057298b4a86670a983be3d8a60b1d964736f6c63430008090033",
  "bytecodeSha1": "40167caf3e24e21889e56aab3476533d6cc929b8",
  "compiler": {
    "evm_version": "istanbul",
    "optimizer": {
      "enabled": true,
      "runs": 200
    },
    "version": "0.8.9+commit.e5eed63a"
  },
  "contractName": "D21",
  "language": "Solidity",
  "natspec": {
    "kind": "dev",
    "methods": {},
    "version": 1
  },
  "opcodes": "PUSH1 0x80 PUSH1 0x40 MSTORE CALLVALUE DUP1 ISZERO PUSH2 0x10 JUMPI PUSH1 0x0 DUP1 REVERT JUMPDEST POP PUSH1 0x4 CALLDATASIZE LT PUSH2 0x93 JUMPI PUSH1 0x0 CALLDATALOAD PUSH1 0xE0 SHR DUP1 PUSH4 0x8DA5CB5B GT PUSH2 0x66 JUMPI DUP1 PUSH4 0x8DA5CB5B EQ PUSH2 0xF1 JUMPI DUP1 PUSH4 0x9C4BE147 EQ PUSH2 0x130 JUMPI DUP1 PUSH4 0xE50B310B EQ PUSH2 0x150 JUMPI DUP1 PUSH4 0xEFB98BCF EQ PUSH2 0x165 JUMPI DUP1 PUSH4 0xF4AB9ADF EQ PUSH2 0x17B JUMPI PUSH1 0x0 DUP1 REVERT JUMPDEST DUP1 PUSH4 0x667867F EQ PUSH2 0x98 JUMPI DUP1 PUSH4 0x2673D9C6 EQ PUSH2 0xAD JUMPI DUP1 PUSH4 0x365B890E EQ PUSH2 0xC0 JUMPI DUP1 PUSH4 0x4717F97C EQ PUSH2 0xD3 JUMPI JUMPDEST PUSH1 0x0 DUP1 REVERT JUMPDEST PUSH2 0xAB PUSH2 0xA6 CALLDATASIZE PUSH1 0x4 PUSH2 0xEB6 JUMP JUMPDEST PUSH2 0x18E JUMP JUMPDEST STOP JUMPDEST PUSH2 0xAB PUSH2 0xBB CALLDATASIZE PUSH1 0x4 PUSH2 0xF67 JUMP JUMPDEST PUSH2 0x2EA JUMP JUMPDEST PUSH2 0xAB PUSH2 0xCE CALLDATASIZE PUSH1 0x4 PUSH2 0xF67 JUMP JUMPDEST PUSH2 0x585 JUMP JUMPDEST PUSH2 0xDB PUSH2 0x848 JUMP JUMPDEST PUSH1 0x40 MLOAD PUSH2 0xE8 SWAP2 SWAP1 PUSH2 0xFF7 JUMP JUMPDEST PUSH1 0x40 MLOAD DUP1 SWAP2 SUB SWAP1 RETURN JUMPDEST PUSH2 0x118 PUSH32 0x0 DUP2 JUMP JUMPDEST PUSH1 0x40 MLOAD PUSH1 0x1 PUSH1 0x1 PUSH1 0xA0 SHL SUB SWAP1 SWAP2 AND DUP2 MSTORE PUSH1 0x20 ADD PUSH2 0xE8 JUMP JUMPDEST PUSH2 0x143 PUSH2 0x13E CALLDATASIZE PUSH1 0x4 PUSH2 0xF67 JUMP JUMPDEST PUSH2 0x9E0 JUMP JUMPDEST PUSH1 0x40 MLOAD PUSH2 0xE8 SWAP2 SWAP1 PUSH2 0x1059 JUMP JUMPDEST PUSH2 0x158 PUSH2 0xAB9 JUMP JUMPDEST PUSH1 0x40 MLOAD PUSH2 0xE8 SWAP2 SWAP1 PUSH2 0x106C JUMP JUMPDEST PUSH2 0x16D PUSH2 0xB1B JUMP JUMPDEST PUSH1 0x40 MLOAD SWAP1 DUP2 MSTORE PUSH1 0x20 ADD PUSH2 0xE8 JUMP JUMPDEST PUSH2 0xAB PUSH2 0x189 CALLDATASIZE PUSH1 0x4 PUSH2 0xF67 JUMP JUMPDEST PUSH2 0xB51 JUMP JUMPDEST TIMESTAMP PUSH1 0x0 SLOAD GT PUSH2 0x1B8 JUMPI PUSH1 0x40 MLOAD PUSH3 0x461BCD PUSH1 0xE5 SHL DUP2 MSTORE PUSH1 0x4 ADD PUSH2 0x1AF SWAP1 PUSH2 0x10B9 JUMP JUMPDEST PUSH1 0x40 MLOAD DUP1 SWAP2 SUB SWAP1 REVERT JUMPDEST CALLER PUSH1 0x0 SWAP1 DUP2 MSTORE PUSH1 0x3 PUSH1 0x20 MSTORE PUSH1 0x40 SWAP1 KECCAK256 SLOAD PUSH1 0xFF AND ISZERO PUSH2 0x24C JUMPI PUSH1 0x40 MLOAD PUSH3 0x461BCD PUSH1 0xE5 SHL DUP2 MSTORE PUSH1 0x20 PUSH1 0x4 DUP3 ADD MSTORE PUSH1 0x45 PUSH1 0x24 DUP3 ADD MSTORE PUSH32 0x4F6E6520706572736F6E2063616E20637265617465206F6E65207375626A6563 PUSH1 0x44 DUP3 ADD MSTORE PUSH32 0x74206F6E6C792E20596F75206861766520616C72656164792063726561746564 PUSH1 0x64 DUP3 ADD MSTORE PUSH5 0x1037B73297 PUSH1 0xD9 SHL PUSH1 0x84 DUP3 ADD MSTORE PUSH1 0xA4 ADD PUSH2 0x1AF JUMP JUMPDEST PUSH1 0x40 DUP1 MLOAD DUP1 DUP3 ADD DUP3 MSTORE DUP3 DUP2 MSTORE PUSH1 0x0 PUSH1 0x20 DUP1 DUP4 ADD DUP3 SWAP1 MSTORE CALLER DUP3 MSTORE PUSH1 0x1 DUP2 MSTORE SWAP3 SWAP1 KECCAK256 DUP2 MLOAD DUP1 MLOAD SWAP3 SWAP4 SWAP2 SWAP3 PUSH2 0x281 SWAP3 DUP5 SWAP3 ADD SWAP1 PUSH2 0xE07 JUMP JUMPDEST POP PUSH1 0x20 SWAP2 DUP3 ADD MLOAD PUSH1 0x1 SWAP2 DUP3 ADD SSTORE PUSH1 0x4 DUP1 SLOAD DUP1 DUP4 ADD SWAP1 SWAP2 SSTORE PUSH32 0x8A35ACFBC15FF81A39AE7D344FD709F28E8600B4AA8C65C6B64BFE7FE36BD19B ADD DUP1 SLOAD PUSH1 0x1 PUSH1 0x1 PUSH1 0xA0 SHL SUB NOT AND CALLER SWAP1 DUP2 OR SWAP1 SWAP2 SSTORE PUSH1 0x0 SWAP1 DUP2 MSTORE PUSH1 0x3 SWAP1 SWAP3 MSTORE PUSH1 0x40 SWAP1 SWAP2 KECCAK256 DUP1 SLOAD PUSH1 0xFF NOT AND SWAP1 SWAP2 OR SWAP1 SSTORE POP JUMP JUMPDEST TIMESTAMP PUSH1 0x0 SLOAD GT PUSH2 0x30B JUMPI PUSH1 0x40 MLOAD PUSH3 0x461BCD PUSH1 0xE5 SHL DUP2 MSTORE PUSH1 0x4 ADD PUSH2 0x1AF SWAP1 PUSH2 0x10B9 JUMP JUMPDEST CALLER PUSH1 0x0 SWAP1 DUP2 MSTORE PUSH1 0x2 PUSH1 0x20 MSTORE PUSH1 0x40 SWAP1 KECCAK256 SLOAD PUSH1 0xFF AND PUSH2 0x35E JUMPI PUSH1 0x40 MLOAD PUSH3 0x461BCD PUSH1 0xE5 SHL DUP2 MSTORE PUSH1 0x20 PUSH1 0x4 DUP3 ADD MSTORE PUSH1 0x11 PUSH1 0x24 DUP3 ADD MSTORE PUSH17 0x2CB7BA9031B0B7103737BA103B37BA3297 PUSH1 0x79 SHL PUSH1 0x44 DUP3 ADD MSTORE PUSH1 0x64 ADD PUSH2 0x1AF JUMP JUMPDEST PUSH1 0x1 PUSH1 0x1 PUSH1 0xA0 SHL SUB DUP2 AND PUSH1 0x0 SWAP1 DUP2 MSTORE PUSH1 0x3 PUSH1 0x20 MSTORE PUSH1 0x40 SWAP1 KECCAK256 SLOAD DUP2 SWAP1 PUSH1 0xFF AND PUSH2 0x3C2 JUMPI PUSH1 0x40 MLOAD PUSH3 0x461BCD PUSH1 0xE5 SHL DUP2 MSTORE PUSH1 0x20 PUSH1 0x4 DUP3 ADD MSTORE PUSH1 0x17 PUSH1 0x24 DUP3 ADD MSTORE PUSH23 0x29BAB13532B1BA103237B2B9903737BA1032BC34B9BA17 PUSH1 0x49 SHL PUSH1 0x44 DUP3 ADD MSTORE PUSH1 0x64 ADD PUSH2 0x1AF JUMP JUMPDEST CALLER PUSH1 0x0 SWAP1 DUP2 MSTORE PUSH1 0x2 PUSH1 0x20 DUP2 SWAP1 MSTORE PUSH1 0x40 SWAP1 SWAP2 KECCAK256 PUSH1 0x1 DUP2 ADD SLOAD SWAP1 SWAP2 PUSH1 0x1 PUSH1 0xA0 SHL SWAP1 SWAP2 DIV PUSH1 0xFF AND LT PUSH2 0x446 JUMPI PUSH1 0x40 MLOAD PUSH3 0x461BCD PUSH1 0xE5 SHL DUP2 MSTORE PUSH1 0x20 PUSH1 0x4 DUP3 ADD MSTORE PUSH1 0x2A PUSH1 0x24 DUP3 ADD MSTORE PUSH32 0x596F75206861766520616C7265616479206469766520706F7369746976652076 PUSH1 0x44 DUP3 ADD MSTORE PUSH10 0x37BA32903A3BB4B1B297 PUSH1 0xB1 SHL PUSH1 0x64 DUP3 ADD MSTORE PUSH1 0x84 ADD PUSH2 0x1AF JUMP JUMPDEST DUP1 SLOAD PUSH1 0x1 PUSH1 0x1 PUSH1 0xA0 SHL SUB DUP5 DUP2 AND PUSH2 0x100 SWAP1 SWAP3 DIV AND EQ ISZERO PUSH2 0x4B9 JUMPI PUSH1 0x40 MLOAD PUSH3 0x461BCD PUSH1 0xE5 SHL DUP2 MSTORE PUSH1 0x20 PUSH1 0x4 DUP3 ADD MSTORE PUSH1 0x28 PUSH1 0x24 DUP3 ADD MSTORE PUSH32 0x596F75206861766520616C726561647920766F74656420666F72207468697320 PUSH1 0x44 DUP3 ADD MSTORE PUSH8 0x39BAB13532B1BA17 PUSH1 0xC1 SHL PUSH1 0x64 DUP3 ADD MSTORE PUSH1 0x84 ADD PUSH2 0x1AF JUMP JUMPDEST PUSH1 0x1 DUP2 ADD DUP1 SLOAD PUSH1 0x14 SWAP1 PUSH2 0x4D5 SWAP1 PUSH1 0x1 PUSH1 0xA0 SHL SWAP1 DIV PUSH1 0xFF AND PUSH2 0x1106 JUMP JUMPDEST SWAP2 SWAP1 PUSH2 0x100 EXP DUP2 SLOAD DUP2 PUSH1 0xFF MUL NOT AND SWAP1 DUP4 PUSH1 0xFF AND MUL OR SWAP1 SSTORE POP PUSH1 0x1 PUSH1 0x0 DUP5 PUSH1 0x1 PUSH1 0x1 PUSH1 0xA0 SHL SUB AND PUSH1 0x1 PUSH1 0x1 PUSH1 0xA0 SHL SUB AND DUP2 MSTORE PUSH1 0x20 ADD SWAP1 DUP2 MSTORE PUSH1 0x20 ADD PUSH1 0x0 KECCAK256 PUSH1 0x1 ADD PUSH1 0x0 DUP2 SLOAD PUSH2 0x522 SWAP1 PUSH2 0x1126 JUMP JUMPDEST SWAP1 SWAP2 SSTORE POP PUSH1 0x1 DUP2 DUP2 ADD SLOAD PUSH1 0x1 PUSH1 0xA0 SHL SWAP1 DIV PUSH1 0xFF AND EQ ISZERO PUSH2 0x561 JUMPI DUP1 SLOAD PUSH1 0x1 PUSH1 0x1 PUSH1 0xA0 SHL SUB DUP5 AND PUSH2 0x100 MUL PUSH2 0x100 PUSH1 0x1 PUSH1 0xA8 SHL SUB NOT SWAP1 SWAP2 AND OR DUP2 SSTORE POP POP POP JUMP JUMPDEST PUSH1 0x1 DUP2 ADD DUP1 SLOAD PUSH1 0x1 PUSH1 0x1 PUSH1 0xA0 SHL SUB DUP6 AND PUSH1 0x1 PUSH1 0x1 PUSH1 0xA0 SHL SUB NOT SWAP1 SWAP2 AND OR SWAP1 SSTORE POP POP POP JUMP JUMPDEST TIMESTAMP PUSH1 0x0 SLOAD GT PUSH2 0x5A6 JUMPI PUSH1 0x40 MLOAD PUSH3 0x461BCD PUSH1 0xE5 SHL DUP2 MSTORE PUSH1 0x4 ADD PUSH2 0x1AF SWAP1 PUSH2 0x10B9 JUMP JUMPDEST CALLER PUSH1 0x0 SWAP1 DUP2 MSTORE PUSH1 0x2 PUSH1 0x20 MSTORE PUSH1 0x40 SWAP1 KECCAK256 SLOAD PUSH1 0xFF AND PUSH2 0x5F9 JUMPI PUSH1 0x40 MLOAD PUSH3 0x461BCD PUSH1 0xE5 SHL DUP2 MSTORE PUSH1 0x20 PUSH1 0x4 DUP3 ADD MSTORE PUSH1 0x11 PUSH1 0x24 DUP3 ADD MSTORE PUSH17 0x2CB7BA9031B0B7103737BA103B37BA3297 PUSH1 0x79 SHL PUSH1 0x44 DUP3 ADD MSTORE PUSH1 0x64 ADD PUSH2 0x1AF JUMP JUMPDEST PUSH1 0x1 PUSH1 0x1 PUSH1 0xA0 SHL SUB DUP2 AND PUSH1 0x0 SWAP1 DUP2 MSTORE PUSH1 0x3 PUSH1 0x20 MSTORE PUSH1 0x40 SWAP1 KECCAK256 SLOAD DUP2 SWAP1 PUSH1 0xFF AND PUSH2 0x65D JUMPI PUSH1 0x40 MLOAD PUSH3 0x461BCD PUSH1 0xE5 SHL DUP2 MSTORE PUSH1 0x20 PUSH1 0x4 DUP3 ADD MSTORE PUSH1 0x17 PUSH1 0x24 DUP3 ADD MSTORE PUSH23 0x29BAB13532B1BA103237B2B9903737BA1032BC34B9BA17 PUSH1 0x49 SHL PUSH1 0x44 DUP3 ADD MSTORE PUSH1 0x64 ADD PUSH2 0x1AF JUMP JUMPDEST CALLER PUSH1 0x0 SWAP1 DUP2 MSTORE PUSH1 0x2 PUSH1 0x20 MSTORE PUSH1 0x40 SWAP1 KECCAK256 PUSH1 0x1 DUP1 DUP3 ADD SLOAD PUSH1 0x1 PUSH1 0xA0 SHL SWAP1 DIV PUSH1 0xFF AND GT PUSH2 0x6E5 JUMPI PUSH1 0x40 MLOAD PUSH3 0x461BCD PUSH1 0xE5 SHL DUP2 MSTORE PUSH1 0x20 PUSH1 0x4 DUP3 ADD MSTORE PUSH1 0x33 PUSH1 0x24 DUP3 ADD MSTORE PUSH32 0x596F75206D75737420766F746520706F7369746976652074776963652C206265 PUSH1 0x44 DUP3 ADD MSTORE PUSH19 0x3337B932903B37BA32903732B3B0BA34BB3297 PUSH1 0x69 SHL PUSH1 0x64 DUP3 ADD MSTORE PUSH1 0x84 ADD PUSH2 0x1AF JUMP JUMPDEST PUSH1 0x1 DUP2 ADD SLOAD PUSH1 0x3 PUSH1 0x1 PUSH1 0xA0 SHL SWAP1 SWAP2 DIV PUSH1 0xFF AND LT PUSH2 0x744 JUMPI PUSH1 0x40 MLOAD PUSH3 0x461BCD PUSH1 0xE5 SHL DUP2 MSTORE PUSH1 0x20 PUSH1 0x4 DUP3 ADD DUP2 SWAP1 MSTORE PUSH1 0x24 DUP3 ADD MSTORE PUSH32 0x596F75206861766520616C726561647920766F746564206E656761746976652E PUSH1 0x44 DUP3 ADD MSTORE PUSH1 0x64 ADD PUSH2 0x1AF JUMP JUMPDEST DUP1 SLOAD PUSH1 0x1 PUSH1 0x1 PUSH1 0xA0 SHL SUB DUP5 DUP2 AND PUSH2 0x100 SWAP1 SWAP3 DIV AND EQ DUP1 ISZERO SWAP1 PUSH2 0x776 JUMPI POP PUSH1 0x1 DUP2 ADD SLOAD PUSH1 0x1 PUSH1 0x1 PUSH1 0xA0 SHL SUB DUP5 DUP2 AND SWAP2 AND EQ ISZERO JUMPDEST PUSH2 0x7D6 JUMPI PUSH1 0x40 MLOAD PUSH3 0x461BCD PUSH1 0xE5 SHL DUP2 MSTORE PUSH1 0x20 PUSH1 0x4 DUP3 ADD MSTORE PUSH1 0x2B PUSH1 0x24 DUP3 ADD MSTORE PUSH32 0x596F7520616C726561647920766F74656420706F73697469766520666F722074 PUSH1 0x44 DUP3 ADD MSTORE PUSH11 0x1A1A5CC81CDD589A9958DD PUSH1 0xAA SHL PUSH1 0x64 DUP3 ADD MSTORE PUSH1 0x84 ADD PUSH2 0x1AF JUMP JUMPDEST PUSH1 0x1 DUP2 ADD DUP1 SLOAD PUSH1 0x14 SWAP1 PUSH2 0x7F2 SWAP1 PUSH1 0x1 PUSH1 0xA0 SHL SWAP1 DIV PUSH1 0xFF AND PUSH2 0x1106 JUMP JUMPDEST SWAP2 SWAP1 PUSH2 0x100 EXP DUP2 SLOAD DUP2 PUSH1 0xFF MUL NOT AND SWAP1 DUP4 PUSH1 0xFF AND MUL OR SWAP1 SSTORE POP PUSH1 0x1 PUSH1 0x0 DUP5 PUSH1 0x1 PUSH1 0x1 PUSH1 0xA0 SHL SUB AND PUSH1 0x1 PUSH1 0x1 PUSH1 0xA0 SHL SUB AND DUP2 MSTORE PUSH1 0x20 ADD SWAP1 DUP2 MSTORE PUSH1 0x20 ADD PUSH1 0x0 KECCAK256 PUSH1 0x1 ADD PUSH1 0x0 DUP2 SLOAD PUSH2 0x83F SWAP1 PUSH2 0x1146 JUMP JUMPDEST SWAP1 SWAP2 SSTORE POP POP POP POP JUMP JUMPDEST PUSH1 0x4 SLOAD PUSH1 0x60 SWAP1 PUSH1 0x0 SWAP1 PUSH8 0xFFFFFFFFFFFFFFFF DUP2 GT ISZERO PUSH2 0x869 JUMPI PUSH2 0x869 PUSH2 0xEA0 JUMP JUMPDEST PUSH1 0x40 MLOAD SWAP1 DUP1 DUP3 MSTORE DUP1 PUSH1 0x20 MUL PUSH1 0x20 ADD DUP3 ADD PUSH1 0x40 MSTORE DUP1 ISZERO PUSH2 0x8AF JUMPI DUP2 PUSH1 0x20 ADD JUMPDEST PUSH1 0x40 DUP1 MLOAD DUP1 DUP3 ADD SWAP1 SWAP2 MSTORE PUSH1 0x60 DUP2 MSTORE PUSH1 0x0 PUSH1 0x20 DUP3 ADD MSTORE DUP2 MSTORE PUSH1 0x20 ADD SWAP1 PUSH1 0x1 SWAP1 SUB SWAP1 DUP2 PUSH2 0x887 JUMPI SWAP1 POP JUMPDEST POP SWAP1 POP PUSH1 0x0 JUMPDEST PUSH1 0x4 SLOAD DUP2 LT ISZERO PUSH2 0x9D0 JUMPI PUSH1 0x1 PUSH1 0x0 PUSH1 0x4 DUP4 DUP2 SLOAD DUP2 LT PUSH2 0x8D6 JUMPI PUSH2 0x8D6 PUSH2 0x1164 JUMP JUMPDEST PUSH1 0x0 SWAP2 DUP3 MSTORE PUSH1 0x20 DUP1 DUP4 KECCAK256 SWAP1 SWAP2 ADD SLOAD PUSH1 0x1 PUSH1 0x1 PUSH1 0xA0 SHL SUB AND DUP4 MSTORE DUP3 ADD SWAP3 SWAP1 SWAP3 MSTORE PUSH1 0x40 SWAP1 DUP2 ADD SWAP1 SWAP2 KECCAK256 DUP2 MLOAD DUP1 DUP4 ADD SWAP1 SWAP3 MSTORE DUP1 SLOAD DUP3 SWAP1 DUP3 SWAP1 PUSH2 0x914 SWAP1 PUSH2 0x117A JUMP JUMPDEST DUP1 PUSH1 0x1F ADD PUSH1 0x20 DUP1 SWAP2 DIV MUL PUSH1 0x20 ADD PUSH1 0x40 MLOAD SWAP1 DUP2 ADD PUSH1 0x40 MSTORE DUP1 SWAP3 SWAP2 SWAP1 DUP2 DUP2 MSTORE PUSH1 0x20 ADD DUP3 DUP1 SLOAD PUSH2 0x940 SWAP1 PUSH2 0x117A JUMP JUMPDEST DUP1 ISZERO PUSH2 0x98D JUMPI DUP1 PUSH1 0x1F LT PUSH2 0x962 JUMPI PUSH2 0x100 DUP1 DUP4 SLOAD DIV MUL DUP4 MSTORE SWAP2 PUSH1 0x20 ADD SWAP2 PUSH2 0x98D JUMP JUMPDEST DUP3 ADD SWAP2 SWAP1 PUSH1 0x0 MSTORE PUSH1 0x20 PUSH1 0x0 KECCAK256 SWAP1 JUMPDEST DUP2 SLOAD DUP2 MSTORE SWAP1 PUSH1 0x1 ADD SWAP1 PUSH1 0x20 ADD DUP1 DUP4 GT PUSH2 0x970 JUMPI DUP3 SWAP1 SUB PUSH1 0x1F AND DUP3 ADD SWAP2 JUMPDEST POP POP POP POP POP DUP2 MSTORE PUSH1 0x20 ADD PUSH1 0x1 DUP3 ADD SLOAD DUP2 MSTORE POP POP DUP3 DUP3 DUP2 MLOAD DUP2 LT PUSH2 0x9B2 JUMPI PUSH2 0x9B2 PUSH2 0x1164 JUMP JUMPDEST PUSH1 0x20 MUL PUSH1 0x20 ADD ADD DUP2 SWAP1 MSTORE POP DUP1 DUP1 PUSH2 0x9C8 SWAP1 PUSH2 0x11B5 JUMP JUMPDEST SWAP2 POP POP PUSH2 0x8B5 JUMP JUMPDEST POP PUSH2 0x9DA DUP2 PUSH2 0xCFB JUMP JUMPDEST SWAP2 POP POP SWAP1 JUMP JUMPDEST PUSH1 0x40 DUP1 MLOAD DUP1 DUP3 ADD SWAP1 SWAP2 MSTORE PUSH1 0x60 DUP2 MSTORE PUSH1 0x0 PUSH1 0x20 DUP3 ADD MSTORE PUSH1 0x1 PUSH1 0x1 PUSH1 0xA0 SHL SUB DUP3 AND PUSH1 0x0 SWAP1 DUP2 MSTORE PUSH1 0x1 PUSH1 0x20 MSTORE PUSH1 0x40 SWAP1 DUP2 SWAP1 KECCAK256 DUP2 MLOAD DUP1 DUP4 ADD SWAP1 SWAP3 MSTORE DUP1 SLOAD DUP3 SWAP1 DUP3 SWAP1 PUSH2 0xA26 SWAP1 PUSH2 0x117A JUMP JUMPDEST DUP1 PUSH1 0x1F ADD PUSH1 0x20 DUP1 SWAP2 DIV MUL PUSH1 0x20 ADD PUSH1 0x40 MLOAD SWAP1 DUP2 ADD PUSH1 0x40 MSTORE DUP1 SWAP3 SWAP2 SWAP1 DUP2 DUP2 MSTORE PUSH1 0x20 ADD DUP3 DUP1 SLOAD PUSH2 0xA52 SWAP1 PUSH2 0x117A JUMP JUMPDEST DUP1 ISZERO PUSH2 0xA9F JUMPI DUP1 PUSH1 0x1F LT PUSH2 0xA74 JUMPI PUSH2 0x100 DUP1 DUP4 SLOAD DIV MUL DUP4 MSTORE SWAP2 PUSH1 0x20 ADD SWAP2 PUSH2 0xA9F JUMP JUMPDEST DUP3 ADD SWAP2 SWAP1 PUSH1 0x0 MSTORE PUSH1 0x20 PUSH1 0x0 KECCAK256 SWAP1 JUMPDEST DUP2 SLOAD DUP2 MSTORE SWAP1 PUSH1 0x1 ADD SWAP1 PUSH1 0x20 ADD DUP1 DUP4 GT PUSH2 0xA82 JUMPI DUP3 SWAP1 SUB PUSH1 0x1F AND DUP3 ADD SWAP2 JUMPDEST POP POP POP POP POP DUP2 MSTORE PUSH1 0x20 ADD PUSH1 0x1 DUP3 ADD SLOAD DUP2 MSTORE POP POP SWAP1 POP SWAP2 SWAP1 POP JUMP JUMPDEST PUSH1 0x60 PUSH1 0x4 DUP1 SLOAD DUP1 PUSH1 0x20 MUL PUSH1 0x20 ADD PUSH1 0x40 MLOAD SWAP1 DUP2 ADD PUSH1 0x40 MSTORE DUP1 SWAP3 SWAP2 SWAP1 DUP2 DUP2 MSTORE PUSH1 0x20 ADD DUP3 DUP1 SLOAD DUP1 ISZERO PUSH2 0xB11 JUMPI PUSH1 0x20 MUL DUP3 ADD SWAP2 SWAP1 PUSH1 0x0 MSTORE PUSH1 0x20 PUSH1 0x0 KECCAK256 SWAP1 JUMPDEST DUP2 SLOAD PUSH1 0x1 PUSH1 0x1 PUSH1 0xA0 SHL SUB AND DUP2 MSTORE PUSH1 0x1 SWAP1 SWAP2 ADD SWAP1 PUSH1 0x20 ADD DUP1 DUP4 GT PUSH2 0xAF3 JUMPI JUMPDEST POP POP POP POP POP SWAP1 POP SWAP1 JUMP JUMPDEST PUSH1 0x0 TIMESTAMP PUSH1 0x0 SLOAD GT PUSH2 0xB3E JUMPI PUSH1 0x40 MLOAD PUSH3 0x461BCD PUSH1 0xE5 SHL DUP2 MSTORE PUSH1 0x4 ADD PUSH2 0x1AF SWAP1 PUSH2 0x10B9 JUMP JUMPDEST TIMESTAMP PUSH1 0x0 SLOAD PUSH2 0xB4C SWAP2 SWAP1 PUSH2 0x11C9 JUMP JUMPDEST SWAP1 POP SWAP1 JUMP JUMPDEST TIMESTAMP PUSH1 0x0 SLOAD GT PUSH2 0xB72 JUMPI PUSH1 0x40 MLOAD PUSH3 0x461BCD PUSH1 0xE5 SHL DUP2 MSTORE PUSH1 0x4 ADD PUSH2 0x1AF SWAP1 PUSH2 0x10B9 JUMP JUMPDEST CALLER PUSH1 0x1 PUSH1 0x1 PUSH1 0xA0 SHL SUB PUSH32 0x0 AND EQ PUSH2 0xBF6 JUMPI PUSH1 0x40 MLOAD PUSH3 0x461BCD PUSH1 0xE5 SHL DUP2 MSTORE PUSH1 0x20 PUSH1 0x4 DUP3 ADD MSTORE PUSH1 0x23 PUSH1 0x24 DUP3 ADD MSTORE PUSH32 0x436F6E7472616374206F776E6572206F6E6C792063616E2061646420766F7465 PUSH1 0x44 DUP3 ADD MSTORE PUSH3 0x393997 PUSH1 0xE9 SHL PUSH1 0x64 DUP3 ADD MSTORE PUSH1 0x84 ADD PUSH2 0x1AF JUMP JUMPDEST PUSH1 0x1 PUSH1 0x1 PUSH1 0xA0 SHL SUB DUP2 AND PUSH1 0x0 SWAP1 DUP2 MSTORE PUSH1 0x2 PUSH1 0x20 MSTORE PUSH1 0x40 SWAP1 KECCAK256 SLOAD PUSH1 0xFF AND ISZERO PUSH2 0xC71 JUMPI PUSH1 0x40 MLOAD PUSH3 0x461BCD PUSH1 0xE5 SHL DUP2 MSTORE PUSH1 0x20 PUSH1 0x4 DUP3 ADD MSTORE PUSH1 0x29 PUSH1 0x24 DUP3 ADD MSTORE PUSH32 0x5468697320706572736F6E2077617320616C7265616479206164646564206173 PUSH1 0x44 DUP3 ADD MSTORE PUSH9 0x1030903B37BA32B917 PUSH1 0xB9 SHL PUSH1 0x64 DUP3 ADD MSTORE PUSH1 0x84 ADD PUSH2 0x1AF JUMP JUMPDEST PUSH1 0x40 DUP1 MLOAD PUSH1 0x80 DUP2 ADD DUP3 MSTORE PUSH1 0x1 DUP1 DUP3 MSTORE PUSH1 0x0 PUSH1 0x20 DUP1 DUP5 ADD DUP3 DUP2 MSTORE DUP5 DUP7 ADD DUP4 DUP2 MSTORE PUSH1 0x60 DUP7 ADD DUP5 DUP2 MSTORE PUSH1 0x1 PUSH1 0x1 PUSH1 0xA0 SHL SUB SWAP9 DUP10 AND DUP6 MSTORE PUSH1 0x2 SWAP1 SWAP4 MSTORE SWAP6 SWAP1 SWAP3 KECCAK256 SWAP4 MLOAD DUP5 SLOAD SWAP3 MLOAD DUP8 AND PUSH2 0x100 MUL PUSH2 0x100 PUSH1 0x1 PUSH1 0xA8 SHL SUB NOT SWAP2 ISZERO ISZERO SWAP2 SWAP1 SWAP2 AND PUSH1 0x1 PUSH1 0x1 PUSH1 0xA8 SHL SUB NOT SWAP4 DUP5 AND OR OR DUP5 SSTORE SWAP4 MLOAD SWAP3 SWAP1 SWAP2 ADD DUP1 SLOAD SWAP4 MLOAD PUSH1 0xFF AND PUSH1 0x1 PUSH1 0xA0 SHL MUL SWAP4 SWAP1 SWAP2 AND SWAP2 SWAP1 SWAP4 AND OR OR SWAP1 SSTORE JUMP JUMPDEST DUP1 MLOAD PUSH1 0x60 SWAP1 PUSH1 0x0 JUMPDEST DUP2 DUP2 LT ISZERO PUSH2 0xDFF JUMPI PUSH1 0x0 PUSH2 0xD18 DUP3 PUSH1 0x1 PUSH2 0x11E0 JUMP JUMPDEST SWAP1 POP JUMPDEST DUP3 DUP2 LT ISZERO PUSH2 0xDEC JUMPI DUP5 DUP2 DUP2 MLOAD DUP2 LT PUSH2 0xD35 JUMPI PUSH2 0xD35 PUSH2 0x1164 JUMP JUMPDEST PUSH1 0x20 MUL PUSH1 0x20 ADD ADD MLOAD PUSH1 0x20 ADD MLOAD DUP6 DUP4 DUP2 MLOAD DUP2 LT PUSH2 0xD53 JUMPI PUSH2 0xD53 PUSH2 0x1164 JUMP JUMPDEST PUSH1 0x20 MUL PUSH1 0x20 ADD ADD MLOAD PUSH1 0x20 ADD MLOAD SLT ISZERO PUSH2 0xDDA JUMPI PUSH1 0x0 DUP6 DUP4 DUP2 MLOAD DUP2 LT PUSH2 0xD79 JUMPI PUSH2 0xD79 PUSH2 0x1164 JUMP JUMPDEST PUSH1 0x20 MUL PUSH1 0x20 ADD ADD MLOAD SWAP1 POP DUP6 DUP3 DUP2 MLOAD DUP2 LT PUSH2 0xD95 JUMPI PUSH2 0xD95 PUSH2 0x1164 JUMP JUMPDEST PUSH1 0x20 MUL PUSH1 0x20 ADD ADD MLOAD DUP7 DUP5 DUP2 MLOAD DUP2 LT PUSH2 0xDAF JUMPI PUSH2 0xDAF PUSH2 0x1164 JUMP JUMPDEST PUSH1 0x20 MUL PUSH1 0x20 ADD ADD DUP2 SWAP1 MSTORE POP DUP1 DUP7 DUP4 DUP2 MLOAD DUP2 LT PUSH2 0xDCD JUMPI PUSH2 0xDCD PUSH2 0x1164 JUMP JUMPDEST PUSH1 0x20 MUL PUSH1 0x20 ADD ADD DUP2 SWAP1 MSTORE POP POP JUMPDEST DUP1 PUSH2 0xDE4 DUP2 PUSH2 0x11B5 JUMP JUMPDEST SWAP2 POP POP PUSH2 0xD1B JUMP JUMPDEST POP DUP1 PUSH2 0xDF7 DUP2 PUSH2 0x11B5 JUMP JUMPDEST SWAP2 POP POP PUSH2 0xD03 JUMP JUMPDEST POP SWAP2 SWAP3 SWAP2 POP POP JUMP JUMPDEST DUP3 DUP1 SLOAD PUSH2 0xE13 SWAP1 PUSH2 0x117A JUMP JUMPDEST SWAP1 PUSH1 0x0 MSTORE PUSH1 0x20 PUSH1 0x0 KECCAK256 SWAP1 PUSH1 0x1F ADD PUSH1 0x20 SWAP1 DIV DUP2 ADD SWAP3 DUP3 PUSH2 0xE35 JUMPI PUSH1 0x0 DUP6 SSTORE PUSH2 0xE7B JUMP JUMPDEST DUP3 PUSH1 0x1F LT PUSH2 0xE4E JUMPI DUP1 MLOAD PUSH1 0xFF NOT AND DUP4 DUP1 ADD OR DUP6 SSTORE PUSH2 0xE7B JUMP JUMPDEST DUP3 DUP1 ADD PUSH1 0x1 ADD DUP6 SSTORE DUP3 ISZERO PUSH2 0xE7B JUMPI SWAP2 DUP3 ADD JUMPDEST DUP3 DUP2 GT ISZERO PUSH2 0xE7B JUMPI DUP3 MLOAD DUP3 SSTORE SWAP2 PUSH1 0x20 ADD SWAP2 SWAP1 PUSH1 0x1 ADD SWAP1 PUSH2 0xE60 JUMP JUMPDEST POP PUSH2 0xE87 SWAP3 SWAP2 POP PUSH2 0xE8B JUMP JUMPDEST POP SWAP1 JUMP JUMPDEST JUMPDEST DUP1 DUP3 GT ISZERO PUSH2 0xE87 JUMPI PUSH1 0x0 DUP2 SSTORE PUSH1 0x1 ADD PUSH2 0xE8C JUMP JUMPDEST PUSH4 0x4E487B71 PUSH1 0xE0 SHL PUSH1 0x0 MSTORE PUSH1 0x41 PUSH1 0x4 MSTORE PUSH1 0x24 PUSH1 0x0 REVERT JUMPDEST PUSH1 0x0 PUSH1 0x20 DUP3 DUP5 SUB SLT ISZERO PUSH2 0xEC8 JUMPI PUSH1 0x0 DUP1 REVERT JUMPDEST DUP2 CALLDATALOAD PUSH8 0xFFFFFFFFFFFFFFFF DUP1 DUP3 GT ISZERO PUSH2 0xEE0 JUMPI PUSH1 0x0 DUP1 REVERT JUMPDEST DUP2 DUP5 ADD SWAP2 POP DUP5 PUSH1 0x1F DUP4 ADD SLT PUSH2 0xEF4 JUMPI PUSH1 0x0 DUP1 REVERT JUMPDEST DUP2 CALLDATALOAD DUP2 DUP2 GT ISZERO PUSH2 0xF06 JUMPI PUSH2 0xF06 PUSH2 0xEA0 JUMP JUMPDEST PUSH1 0x40 MLOAD PUSH1 0x1F DUP3 ADD PUSH1 0x1F NOT SWAP1 DUP2 AND PUSH1 0x3F ADD AND DUP2 ADD SWAP1 DUP4 DUP3 GT DUP2 DUP4 LT OR ISZERO PUSH2 0xF2E JUMPI PUSH2 0xF2E PUSH2 0xEA0 JUMP JUMPDEST DUP2 PUSH1 0x40 MSTORE DUP3 DUP2 MSTORE DUP8 PUSH1 0x20 DUP5 DUP8 ADD ADD GT ISZERO PUSH2 0xF47 JUMPI PUSH1 0x0 DUP1 REVERT JUMPDEST DUP3 PUSH1 0x20 DUP7 ADD PUSH1 0x20 DUP4 ADD CALLDATACOPY PUSH1 0x0 SWAP3 DUP2 ADD PUSH1 0x20 ADD SWAP3 SWAP1 SWAP3 MSTORE POP SWAP6 SWAP5 POP POP POP POP POP JUMP JUMPDEST PUSH1 0x0 PUSH1 0x20 DUP3 DUP5 SUB SLT ISZERO PUSH2 0xF79 JUMPI PUSH1 0x0 DUP1 REVERT JUMPDEST DUP2 CALLDATALOAD PUSH1 0x1 PUSH1 0x1 PUSH1 0xA0 SHL SUB DUP2 AND DUP2 EQ PUSH2 0xF90 JUMPI PUSH1 0x0 DUP1 REVERT JUMPDEST SWAP4 SWAP3 POP POP POP JUMP JUMPDEST PUSH1 0x0 DUP2 MLOAD PUSH1 0x40 DUP5 MSTORE DUP1 MLOAD DUP1 PUSH1 0x40 DUP7 ADD MSTORE PUSH1 0x0 JUMPDEST DUP2 DUP2 LT ISZERO PUSH2 0xFC7 JUMPI PUSH1 0x20 DUP2 DUP5 ADD DUP2 ADD MLOAD PUSH1 0x60 DUP9 DUP5 ADD ADD MSTORE ADD PUSH2 0xFAA JUMP JUMPDEST DUP2 DUP2 GT ISZERO PUSH2 0xFD9 JUMPI PUSH1 0x0 PUSH1 0x60 DUP4 DUP9 ADD ADD MSTORE JUMPDEST POP PUSH1 0x20 SWAP4 DUP5 ADD MLOAD SWAP4 DUP6 ADD SWAP4 SWAP1 SWAP4 MSTORE POP POP PUSH1 0x1F ADD PUSH1 0x1F NOT AND ADD PUSH1 0x60 ADD SWAP1 JUMP JUMPDEST PUSH1 0x0 PUSH1 0x20 DUP1 DUP4 ADD DUP2 DUP5 MSTORE DUP1 DUP6 MLOAD DUP1 DUP4 MSTORE PUSH1 0x40 DUP7 ADD SWAP2 POP PUSH1 0x40 DUP2 PUSH1 0x5 SHL DUP8 ADD ADD SWAP3 POP DUP4 DUP8 ADD PUSH1 0x0 JUMPDEST DUP3 DUP2 LT ISZERO PUSH2 0x104C JUMPI PUSH1 0x3F NOT DUP9 DUP7 SUB ADD DUP5 MSTORE PUSH2 0x103A DUP6 DUP4 MLOAD PUSH2 0xF97 JUMP JUMPDEST SWAP5 POP SWAP3 DUP6 ADD SWAP3 SWAP1 DUP6 ADD SWAP1 PUSH1 0x1 ADD PUSH2 0x101E JUMP JUMPDEST POP SWAP3 SWAP8 SWAP7 POP POP POP POP POP POP POP JUMP JUMPDEST PUSH1 0x20 DUP2 MSTORE PUSH1 0x0 PUSH2 0xF90 PUSH1 0x20 DUP4 ADD DUP5 PUSH2 0xF97 JUMP JUMPDEST PUSH1 0x20 DUP1 DUP3 MSTORE DUP3 MLOAD DUP3 DUP3 ADD DUP2 SWAP1 MSTORE PUSH1 0x0 SWAP2 SWAP1 DUP5 DUP3 ADD SWAP1 PUSH1 0x40 DUP6 ADD SWAP1 DUP5 JUMPDEST DUP2 DUP2 LT ISZERO PUSH2 0x10AD JUMPI DUP4 MLOAD PUSH1 0x1 PUSH1 0x1 PUSH1 0xA0 SHL SUB AND DUP4 MSTORE SWAP3 DUP5 ADD SWAP3 SWAP2 DUP5 ADD SWAP2 PUSH1 0x1 ADD PUSH2 0x1088 JUMP JUMPDEST POP SWAP1 SWAP7 SWAP6 POP POP POP POP POP POP JUMP JUMPDEST PUSH1 0x20 DUP1 DUP3 MSTORE PUSH1 0x1B SWAP1 DUP3 ADD MSTORE PUSH32 0x54686520656C656374696F6E73206973206E6F7720656E6465642E0000000000 PUSH1 0x40 DUP3 ADD MSTORE PUSH1 0x60 ADD SWAP1 JUMP JUMPDEST PUSH4 0x4E487B71 PUSH1 0xE0 SHL PUSH1 0x0 MSTORE PUSH1 0x11 PUSH1 0x4 MSTORE PUSH1 0x24 PUSH1 0x0 REVERT JUMPDEST PUSH1 0x0 PUSH1 0xFF DUP3 AND PUSH1 0xFF DUP2 EQ ISZERO PUSH2 0x111D JUMPI PUSH2 0x111D PUSH2 0x10F0 JUMP JUMPDEST PUSH1 0x1 ADD SWAP3 SWAP2 POP POP JUMP JUMPDEST PUSH1 0x0 PUSH1 0x1 PUSH1 0x1 PUSH1 0xFF SHL SUB DUP3 EQ ISZERO PUSH2 0x113F JUMPI PUSH2 0x113F PUSH2 0x10F0 JUMP JUMPDEST POP PUSH1 0x1 ADD SWAP1 JUMP JUMPDEST PUSH1 0x0 PUSH1 0x1 PUSH1 0xFF SHL DUP3 EQ ISZERO PUSH2 0x115C JUMPI PUSH2 0x115C PUSH2 0x10F0 JUMP JUMPDEST POP PUSH1 0x0 NOT ADD SWAP1 JUMP JUMPDEST PUSH4 0x4E487B71 PUSH1 0xE0 SHL PUSH1 0x0 MSTORE PUSH1 0x32 PUSH1 0x4 MSTORE PUSH1 0x24 PUSH1 0x0 REVERT JUMPDEST PUSH1 0x1 DUP2 DUP2 SHR SWAP1 DUP3 AND DUP1 PUSH2 0x118E JUMPI PUSH1 0x7F DUP3 AND SWAP2 POP JUMPDEST PUSH1 0x20 DUP3 LT DUP2 EQ ISZERO PUSH2 0x11AF JUMPI PUSH4 0x4E487B71 PUSH1 0xE0 SHL PUSH1 0x0 MSTORE PUSH1 0x22 PUSH1 0x4 MSTORE PUSH1 0x24 PUSH1 0x0 REVERT JUMPDEST POP SWAP2 SWAP1 POP JUMP JUMPDEST PUSH1 0x0 PUSH1 0x0 NOT DUP3 EQ ISZERO PUSH2 0x113F JUMPI PUSH2 0x113F PUSH2 0x10F0 JUMP JUMPDEST PUSH1 0x0 DUP3 DUP3 LT ISZERO PUSH2 0x11DB JUMPI PUSH2 0x11DB PUSH2 0x10F0 JUMP JUMPDEST POP SUB SWAP1 JUMP JUMPDEST PUSH1 0x0 DUP3 NOT DUP3 GT ISZERO PUSH2 0x11F3 JUMPI PUSH2 0x11F3 PUSH2 0x10F0 JUMP JUMPDEST POP ADD SWAP1 JUMP INVALID LOG2 PUSH5 0x6970667358 0x22 SLT KECCAK256 DUP14 0xE0 PUSH19 0x6A8CA769C1DC5937FE0AB108F77E057298B4A8 PUSH7 0x70A983BE3D8A60 0xB1 0xD9 PUSH5 0x736F6C6343 STOP ADDMOD MULMOD STOP CALLER ",
  "sha1": "f44269c49d6bd69a38d2aafc906d4e6955033686",
  "source": "// SPDX-License-Identifier: MIT\npragma solidity 0.8.9;\n\nimport \"./IVoteD21.sol\";\n\ncontract D21 is IVoteD21 {\n\n    address immutable public owner;\n    uint private deadline;\n\n    mapping(address => Subject) private subjects;\n    mapping(address => Voter) private voters;\n    mapping(address => bool) private subjectCreated;\n    address[] private subjectsAddr;\n\n    constructor() {\n        owner = msg.sender;\n        deadline = block.timestamp + 1 weeks;\n    }\n\n    // Check we can still vote.\n    modifier contractActive {\n        require(deadline > block.timestamp, \"The elections is now ended.\");\n        _;\n    }\n\n    // Check voter has the right to vote\n    modifier voterActive {\n        require(voters[msg.sender].canVote, \"You can not vote.\");\n        _;\n    }\n\n    // Ensures subject exists\n    modifier subjectExist(address addr) {\n        require(subjectCreated[addr], \"Subject does not exist.\");\n        _;\n    }\n    \n    function addSubject(string memory name) external contractActive {\n        require(!subjectCreated[msg.sender], \"One person can create one subject only. You have already created one.\");\n        subjects[msg.sender] = Subject(name, 0);\n        subjectsAddr.push(msg.sender);\n        subjectCreated[msg.sender] = true;\n    }\n\n    function addVoter(address addr) external contractActive {\n        require(msg.sender == owner, \"Contract owner only can add voters.\");\n        require(!voters[addr].canVote, \"This person was already added as a voter.\");\n        voters[addr] = Voter(true, address(0x0), address(0x0), 0);\n    }\n\n    function getSubjects() external view returns(address[] memory) {\n        return subjectsAddr;\n    }\n\n    function getSubject(address addr) external view returns(Subject memory) {\n        return subjects[addr];\n    }\n\n    function votePositive(address addr) external contractActive voterActive subjectExist(addr) {\n        Voter storage vot = voters[msg.sender];\n        require(vot.voteCount < 2, \"You have already dive positive vote twice.\");\n        require(vot.votePositiveAddr != addr, \"You have already voted for this subject.\");\n        ++vot.voteCount;\n        ++subjects[addr].votes;\n        if(vot.voteCount == 1)\n            vot.votePositiveAddr = addr;\n        else\n            vot.votePositiveAddr2 = addr;\n    }\n\n    function voteNegative(address addr) external contractActive voterActive subjectExist(addr) {\n        Voter storage vot = voters[msg.sender];\n        require(vot.voteCount > 1, \"You must vote positive twice, before vote negative.\");\n        require(vot.voteCount < 3, \"You have already voted negative.\");\n        require(vot.votePositiveAddr != addr && vot.votePositiveAddr2 != addr, \"You already voted positive for this subject\");\n        ++vot.voteCount;\n        --subjects[addr].votes;\n    }\n\n    function getRemainingTime() external contractActive view returns(uint) {\n        return deadline - block.timestamp;\n    }\n\n    // Results sorted in descending order.\n    function getResults() external view returns(Subject[] memory) {\n        Subject[] memory subjectArray = new Subject[](subjectsAddr.length);\n        for (uint i = 0; i < subjectsAddr.length; i++) {\n            subjectArray[i] = subjects[subjectsAddr[i]];\n        }\n        // quickSort(subjectArray, 0, subjectArray.length - 1);\n        return sort_array(subjectArray);\n    }\n\n    // Does not work\n    // function quickSort(Subject[] memory arr, uint left, uint right) internal pure {\n    //     uint i = left;\n    //     uint j = right;\n    //     if (i == j) return;\n    //     int pivot = arr[uint(left + (right - left) / 2)].votes;\n    //     while (i <= j) {\n    //         while (arr[i].votes > pivot) i++;\n    //         while (pivot > arr[j].votes) j--;\n    //         if (i <= j) {\n    //             (arr[i], arr[j]) = (arr[j], arr[i]);\n    //             i++;\n    //             j--;\n    //         }\n    //     }\n    //     if (left < j)\n    //         quickSort(arr, left, j);\n    //     if (i < right)\n    //         quickSort(arr, i, right);\n    // }\n\n    function sort_array(Subject[] memory arr) private pure returns (Subject[] memory) {\n        uint256 l = arr.length;\n        for(uint i = 0; i < l; i++) {\n            for(uint j = i+1; j < l ;j++) {\n                if(arr[i].votes < arr[j].votes) {\n                    Subject memory temp = arr[i];\n                    arr[i] = arr[j];\n                    arr[j] = temp;\n                }\n            }\n        }\n        return arr;\n    }\n}",
  "sourcePath": "contracts/D21.sol",
  "type": "contract"
}